:04000000E2EF08F033
:10100000005072657373203120666F7220526564E0
:101010002C203220666F722059656C6C6F772C2003
:101020003320666F7220477265656E202E2E2E204B
:101030000A0057656C636F6D6520746F20434F33F2
:0D1040003236204C616233000A200D0000A2
:10104E00DBEC08F0320E056E010E066E480E076ED2
:10105E0005C002F08DEC08F007C002F08DEC08F030
:10106E00060E046E130E036EAE0EE82EFED7032E82
:10107E00FCD7042EFAD706C002F08DEC08F007C09C
:10108E0002F08DEC08F0A9EC08F00F6E5DEF08F0A1
:10109E008A804AEF08F08A844AEF08F08A824AEF83
:1010AE0008F08A908A948A924AEF08F00F50310A1B
:1010BE00D8B44FEF08F0030AD8B452EF08F0010A83
:1010CE00D8B455EF08F058EF08F000EF00F0080E16
:1010DE00B86E900EAB6E240EAC6ECF0EAF6E000ED1
:1010EE00B06E000E016E000E026EF1EC08F0000EF6
:1010FE00016E000E026EECEC08F0000E016E000E9A
:10110E00026EF6EC08F0000E0E6E120099EF08F06B
:10111E0002C0F6FF100EF76EF86A0800F550D0EC1C
:10112E0008F0022A02C0F6FF100EF76EF86A0800E9
:10113E00F5500009D8A4A6EF08F0A8EF08F08FEF3D
:10114E0008F012009EAAAEEF08F0B0EF08F0A9EF7B
:10115E0008F0000E0E6EABA2B7EF08F0B9EF08F074
:10116E00BBEF08F0AB98AB88AE501200000E896E44
:10117E00000E8A6E000E8B6E9268F80E936EBF0E86
:10118E00946E1F0E7E6E1F0E7F6E000E7C6EF18EA5
:10119E001200016E9EA8D6EF08F0D8EF08F0D1EF3E
:1011AE0008F001C0ADFF1200BDEC08F0E7EC08F04E
:1011BE006EEC08F012000F6A0E6A000127EF08F0BD
:1011CE00620ED36E000E9B6E120001C00AF002C0BA
:1011DE000BF0120001C00CF002C00DF0120001C0A5
:0811EE0008F002C009F0120034
:020000040030CA
:0E000000FF081F1EFF8985FF0FC00FE00F4095
:00000001FF
