:04000000ECEF08F029
:101000000010110000321024120000000000000047
:1010100000000000000000000000000000000000D0
:10102000000000000000000000BC11A01100000042
:101030000000000E0C6E000E0B6EABA222EF08F04B
:1010400024EF08F03AEF08F00B8407500810D8B4EA
:101050002CEF08F02EEF08F03AEF08F002D83AEF44
:1010600008F00500FA6E0750FD6E0850FE6EFF6A2C
:10107000FA501200ABA43FEF08F041EF08F057EF31
:1010800008F00B8209500A10D8B449EF08F04BEF72
:1010900008F057EF08F002D857EF08F00500FA6E95
:1010A0000950FD6E0A50FE6EFF6AFA501200AE50F3
:1010B0001200F5EC08F0610E12EC09F0610E12EC72
:1010C00009F0610E12EC09F019EC08F00D6E77EFE3
:1010D00008F08A8064EF08F08A8264EF08F08A845E
:1010E00064EF08F08A908A928A9464EF08F00D50B9
:1010F000310AD8B469EF08F0030AD8B46CEF08F0ED
:10110000010AD8B46FEF08F072EF08F000EF00F0BA
:10111000480EB86E900EAB6E260EAC6ECF0EAF6E54
:10112000000EB06E320E0E6E120E0F6EDEEC08F078
:101130002C0E0E6E120E0F6ED0EC08F0000E0C6E20
:10114000000E0B6E1200D09EF292F18C000E0E6E0D
:10115000000E0F6E08EC09F0F090F18A000E0E6E92
:10116000000E0F6E03EC09F0F092F188000E0E6E87
:10117000000E0F6EFEEC08F01200000E896E000EDD
:101180008A6E000E8B6E9268F80E936EBF0E946E90
:101190001F0E7F6EF80E7C6E000E7D6EF2861200C2
:1011A0000E500F10D8B4D7EF08F0D9EF08F0DDEFEC
:1011B00008F00EC007F00FC008F012000E500F101C
:1011C000D8B4E5EF08F0E7EF08F0EBEF08F00EC059
:1011D00009F00FC00AF0120000EE01F00D0EEE6AE9
:1011E000E806FDE1000159EF08F00DEC09F0BDEC57
:1011F00008F088EC08F0A3EC08F012000EC001F033
:101200000FC002F012000EC003F00FC004F0120075
:101210000EC005F00FC006F01200620ED36E000E75
:101220009B6E12000E6E0EC0ADFF1200AB98AB8825
:041230001200120096
:020000040030CA
:0E000000FF081F1EFF8985FF0FC00FE00F4095
:00000001FF
