:0400000007EF00F016
:0A0008005F8236ED14F063EF14F090
:1008000000C27C480509024300020100C03209040D
:10081000000001020201000524001001042402026C
:1008200005240600010524010001070581030A00D3
:100830000209040100020A0000000705020240004C
:1008400000070582024000003403430044004300D7
:100850002000520053002D003200330032002000EF
:1008600045006D0075006C006100740069006F0048
:100870006E002000440065006D006F0034034D00E1
:100880006900630072006F00630068006900700017
:10089000200054006500630068006E006F006C006B
:1008A0006F0067007900200049006E0063002E0091
:1008B0001201000202000008D8040A00000101022F
:0708C000000104030904001C
:1008C80004013205D8A46BEF04F06DEF04F087EF54
:1008D80004F030511F0B0009D8A475EF04F077EF2E
:1008E80004F087EF04F0408E030E3119D8A47FEF8F
:1008F80004F081EF04F085EF04F0010E596E87EFE4
:1009080004F0000E596E3251D8A48DEF04F08FEF29
:1009180004F0EBEF05F030511F0B020AD8A497EF53
:1009280004F099EF04F0EBEF05F034510F0B0009D8
:10093800D8B4A1EF04F0A3EF04F0EBEF05F03451C5
:100948000F0B176E030E1760ACEF04F0AEEF04F058
:10095800EBEF05F0200E5C18D8A4B5EF04F0B7EF64
:1009680004F0EBEF05F0408E34BFBDEF04F0BFEFAD
:1009780004F0D5EF04F034510F0B020DF3506A0F59
:10098800D96EDA6ADECF1CF0DDCF1DF034510F0BC3
:10099800176E17507E0FD96EDA6ADF501B6EE9EFBB
:1009A80004F034510F0B020DF350430FD96EDA6A7D
:1009B800DECF1CF0DDCF1DF034510F0B176E175032
:1009C800810FD96EDA6ADF501B6E1BB0EEEF04F0B0
:1009D800F0EF04F0F8EF04F0FB0E1C141C6EFF0E91
:1009E8001D141D6EFDEF04F0040E1C101C6E1D502E
:1009F8001D6E34BF02EF05F004EF05F011EF05F0AE
:100A080034510F0B020DF3506A0FD96EDA6A1CC00D
:100A1800DEFF1DC0DDFF1CEF05F034510F0B020D8A
:100A2800F350430FD96EDA6A1CC0DEFF1DC0DDFF2C
:100A3800030E3119D8A423EF05F025EF05F059EF7F
:100A480005F01CC0D9FF1DC0DAFFDFAE2EEF05F0A0
:100A580030EF05F04BEF05F034BF35EF05F037EF19
:100A680005F042EF05F034510F0B176E17507E0F4B
:100A7800D96EDA6A0001DF824BEF05F034510F0BB3
:100A8800176E1750810FD96EDA6A0001DF821CC019
:100A9800D9FF1DC0DAFF000EDB841CC0D9FF1DC0C2
:100AA800DAFF000EDB8EEBEF05F0040E1C181C6E4F
:100AB8001D501D6E1CC0D9FF1DC0DAFFDFAE67EFE9
:100AC80005F069EF05F085EF05F01CC0D9FF1DC0E2
:100AD800DAFF7F0EDF161CC0D9FF1DC0DAFF000E3B
:100AE800DB8C000E106E050E0F6E1CC011F01DC0C1
:100AF80012F0000E146E020E136E22EC11F08BEF42
:100B080005F01CC0D9FF1DC0DAFF000EDB8C040EF7
:100B18001C181C6E1D501D6E1BB295EF05F097EF4B
:100B280005F0A2EF05F01CC0D9FF1DC0DAFFDFAE4B
:100B3800A0EF05F0A2EF05F0D4EF05F0040134BFF3
:100B4800A8EF05F0AAEF05F0B5EF05F034510F0B4B
:100B5800176E17507E0FD96EDA6A0001DF92BEEF6A
:100B680005F034510F0B176E1750810FD96EDA6AE2
:100B78000001DF921CC0D9FF1DC0DAFF3B0EDF1653
:100B8800000E106E050E0F6E1CC011F01DC012F085
:100B9800000E146E020E136E22EC11F0DAEF05F05F
:100BA8001CC0D9FF1DC0DAFF3B0EDF16040134510B
:100BB8000F0B176E186A700E1724196E0F0E182077
:100BC8001A6E19C0D9FF1AC0DAFFFE0EDF1612001E
:100BD8005C04D8A4F2EF05F0F4EF05F001EF06F09D
:100BE8006DBAF9EF05F0FBEF05F001EF06F0000E26
:100BF800686E69806988020E5C6E68A406EF06F06C
:100C080008EF06F012EF06F069A40DEF06F00FEFFB
:100C180006F012EF06F068948DEC15F06DA217EF50
:100C280006F019EF06F01CEF06F0A19AFAEF06F0AD
:100C380068A021EF06F023EF06F030EF06F069A078
:100C480028EF06F02AEF06F030EF06F046EC0AF03F
:100C5800A08A040E5C6E689068A835EF06F037EF3E
:100C680006F040EF06F069A83CEF06F03EEF06F00C
:100C780040EF06F0FFEC15F068AC45EF06F047EFE3
:100C880006F072EF06F069AC4CEF06F04EEF06F096
:100C98005CEF06F0000E106E730E0F6E000E116EF4
:100CA800000E126E000E146E010E136E22EC11F07F
:100CB800689CE5EC15F05550D8B465EF06F067EF81
:100CC80006F068EF06F055065550D8A46EEF06F00A
:100CD80070EF06F072EF06F019EC0FF068AA77EFE4
:100CE80006F079EF06F082EF06F069AA7EEF06F0CB
:100CF80080EF06F082EF06F006EC14F068A287EFAA
:100D080006F089EF06F09FEF06F069A28EEF06F075
:100D180090EF06F09FEF06F07F0E106E0F68000E42
:100D2800116E000E126E000E146E010E136E22EC80
:100D380011F0000E6A6E040E5C60A5EF06F0A7EFD6
:100D480006F0AAEF06F0A19AFAEF06F069A6AFEF4F
:100D580006F0B1EF06F0F9EF06F0000E206E68A677
:100D6800B8EF06F0BAEF06F0F9EF06F06CCF5DF0D9
:100D78005D30E832E8320F0B576E68965DB4C7EF06
:100D880006F0C9EF06F0D1EF06F057507E0FD96E86
:100D9800DA6A0001DF70D7EF06F05750810FD96E7D
:100DA800DA6A0001DF705750D8A4DDEF06F0DFEFF4
:100DB80006F0E3EF06F06EEC10F0F0EF06F0000E30
:100DC800106E720E0F6E5D0E116E126A000E146EAA
:100DD800000E136E22EC11F0202A030E2064F7EFA8
:100DE80006F0F9EF06F0B3EF06F0A19A1200A09A08
:100DF800000184518511D8B404EF07F006EF07F01D
:100E080014EF07F084C0D9FF85C0DAFFDFAE0FEF1B
:100E180007F011EF07F014EF07F0A08AC6EF07F00C
:100E2800030E5218D8A41BEF07F01DEF07F01FEFB1
:100E380007F0000E526E5250D8A425EF07F027EFA6
:100E480007F02AEF07F0A08AC6EF07F0020E521843
:100E5800D8A431EF07F033EF07F046EF07F0010EA3
:100E68002B6E000E2C6E000E2D6E000E2E6E020ED6
:100E7800DDEC0AF02BC084F02CC085F0030E526E16
:100E8800C5EF07F05204D8A44CEF07F04EEF07F077
:100E9800C5EF07F0400E516454EF07F056EF07F026
:100EA8005AEF07F0400E346E5CEF07F051C034F093
:100EB8003450515C516E000E786F050E796F34C056
:100EC80033F08A51D8A46BEF07F06DEF07F097EF76
:100ED80007F07EEF07F07BC0D9FF7CC0DAFF78C04F
:100EE800E1FF79C0E2FFDFCFE7FF784B792B7B4B3F
:100EF8007C2B33063350D8A484EF07F086EF07F035
:100F08006FEF07F09FEF07F07BC0D9FF7CC0DAFFD7
:100F180078C0E1FF79C0E2FFDFCFE7FF784B792B9C
:100F28007B4B7C2B33063350D8A49DEF07F09FEF03
:100F380007F088EF07F05150D8A4A5EF07F0A7EF06
:100F480007F0B6EF07F0400E3418D8A4AEEF07F05C
:100F5800B0EF07F0B4EF07F0020E526EB6EF07F0ED
:100F6800030E526E010E2B6E000E2C6E050E2D6EAA
:100F780034C02EF0020EDDEC0AF02BC084F02CC039
:100F880085F0A08A12006D9840BECDEF07F0CFEF34
:100F980007F016EF08F038AED4EF07F0D6EF07F0F9
:100FA800EAEF07F0020E5A6E00018C51D8A4DFEF69
:100FB80007F0E1EF07F0E3EF07F07AEC11F0000E2D
:100FC80000018E6F000E8F6F6BEF08F020EE01F0BE
:100FD8004D50D9264E50DA22080EDF6E20EE02F070
:100FE8004D50D9264E50DA22300EDE6E040EDD6EDC
:100FF8004DC0D9FF4EC0DAFF0C0EDF6E4DC0D9FFD1
:101008004EC0DAFF000EDB8E43C0D9FF44C0DAFFC2
:10101800040EDF6E43C0D9FF44C0DAFF000EDB8E3A
:101028006BEF08F0040130AF1CEF08F01EEF08F07A
:101038003CEF08F0010E5A6E00018D51D8A427EF3D
:1010480008F029EF08F02BEF08F07AEC11F0000E09
:1010580000018E6F000E8F6F5450D8A436EF08F041
:1010680038EF08F06BEF08F019EC0FF06BEF08F0B1
:10107800020E5A6E20EE01F04D50D9264E50DA225B
:10108800080EDF6E20EE02F04D50D9264E50DA22BF
:10109800300EDE6E040EDD6E4DC0D9FF4EC0DAFF95
:1010A800040EDF6E4DC0D9FF4EC0DAFF000EDB8E96
:1010B800000E00018E6F000E8F6F5450D8A467EF9A
:1010C80008F069EF08F06BEF08F038EF08F012004D
:1010D800800E04013019D8A474EF08F076EF08F0F8
:1010E8000FEF09F0C00E406E00EF09F0B00E3D6E34
:1010F8003D50D8A4080E3E6E000E426E120E416E90
:101108000FEF09F03251D8A48CEF08F08EEF08F0F9
:10111800CAEF08F03251040F016E01C0F6FF080E45
:10112800F76E0900F5CF3DF0080E3E6E020E3D2425
:10113800016E000E3E20026E01C0F6FF02C0F7FFEE
:10114800F86A070EF76403D00800F55005D0F6CF0B
:10115800E1FFF7CFE2FFE750416E030E3D24016E39
:10116800000E3E20026E01C0F6FF02C0F7FFF86ACB
:10117800070EF76403D00800F55005D0F6CFE1FF5D
:10118800F7CFE2FFE750426E0FEF09F0000E406E16
:101198000FEF09F0030E3261D4EF08F0D6EF08F034
:1011A800F8EF08F03251010F016E01C0F6FF080E8A
:1011B800F76E0900F5CF3DF0080E3E6E3DC0F6FF14
:1011C8003EC0F7FFF86A070EF76403D00800F55031
:1011D80005D0F6CFE1FFF7CFE2FFE750016E0150EF
:1011E800416E426A0FEF09F0000E406E0FEF09F0F2
:1011F800000E406E0FEF09F03351010AD8B47AEFB0
:1012080008F0030AD8B486EF08F0010AD8B4CEEF84
:1012180008F0FCEF08F0120020EE01F04F50D9263C
:101228005050DA22DF50026E0250395C000E3A58F4
:10123800D8B021EF09F023EF09F025EF09F039C004
:1012480002F00250395E000E3A5A000E016E3AEF73
:1012580009F0380E0124D96EDA6A040EDA22355004
:10126800E16EE26ADFCFE7FF352A012A0250015C0E
:10127800D8A041EF09F043EF09F02DEF09F03950FC
:101288003A10D8B44AEF09F04CEF09F085EF09F0AD
:1012980020EE01F04D50D9264E50DA22080EDF6EAE
:1012A80020EE02F04D50D9264E50DA22380EDE6E6E
:1012B800040EDD6E4FC0D9FF50C0DAFFDFBC67EF08
:1012C80009F069EF09F077EF09F04DC0D9FF4EC07A
:1012D800DAFF480EDF6E4DC0D9FF4EC0DAFF000EB0
:1012E800DB8EAEEF09F04DC0D9FF4EC0DAFF080E15
:1012F800DF6E4DC0D9FF4EC0DAFF000EDB8EAEEFB9
:1013080009F020EE01F04D50D9264E50DA22080E91
:10131800DF6E20EE02F04D50D9264E50DA22300E04
:10132800DE6E040EDD6E4DC0D9FF4EC0DAFF040E2E
:10133800DF6E4DC0D9FF4EC0DAFF000EDB8E389E3F
:101348005450D8A4AAEF09F0ACEF09F0AEEF09F0B9
:1013580019EC0FF01200A09A000E6A6E000E686E6B
:10136800000E706E710E2B6E0F0E2C6E000E2E6E10
:10137800000E2D6E000E306E020E2F6EADEC15F0C5
:10138800160E6F6E9F0E6B6E7B0E696E000E336EBF
:101398003350040D000EF324D96E040EF420DA6ED7
:1013A800DE6ADE6ADE6ADD6A332A0B0E3364DFEF3B
:1013B80009F0E1EF09F0CCEF09F06D8C000E6E6ECC
:1013C8006D986D9C6896000E406E000E386E000E8B
:1013D8003A6E000E396E68B6F4EF09F0F6EF09F0D0
:1013E800E6EF09F0010E00018F6F010E8E6F000EFF
:1013F8008D6F000E8C6F000E586E000E336E3350DA
:10140800020DF350430FD96EDA6ADE6ADD6A335093
:10141800020DF3506A0FD96EDA6ADE6ADD6A33505C
:10142800810FD96EDA6ADF6A33507E0FD96EDA6AB5
:10143800DF6A332A020E336424EF0AF026EF0AF03B
:1014480003EF0AF0080E436E040E446E160E706E1B
:10145800040E0401036F300E026F080E016F040EB4
:10146800006F008F000E5E6E000E0001746F000E9C
:10147800756F000E766F000E776F000E8B6F000E83
:101488005C6E1200A09A000E6A6E000E686E000E66
:10149800706E710E016E0F0E026E000E046E000E5D
:1014A800036E000E066E020E056EC9EC15F0160EE0
:1014B8006F6E9F0E6B6E7B0E696E000E096E095083
:1014C800040D000EF324D96E040EF420DA6EDE6AE1
:1014D800DE6ADE6ADD6A092A0B0E096476EF0AF015
:1014E80078EF0AF063EF0AF06D8C000E6E6E6D985F
:1014F8006D9C6896000E406E000E386E000E3A6EB7
:10150800000E396E68B68BEF0AF08DEF0AF07DEFAA
:101518000AF0010E00018F6F010E8E6F000E8D6FA5
:10152800000E8C6F000E586E000E096E0950020DE9
:10153800F350430FD96EDA6ADE6ADD6A0950020D8C
:10154800F3506A0FD96EDA6ADE6ADD6A0950810FD4
:10155800D96EDA6ADF6A09507E0FD96EDA6ADF6AF5
:10156800092A020E0964BBEF0AF0BDEF0AF09AEFF0
:101578000AF0080E436E040E446E160E706E040ECA
:101588000401036F300E026F080E016F040E006F26
:10159800008F000E5E6E000E0001746F000E756FF6
:1015A800000E766F000E776F000E8B6F000E5C6E6C
:1015B80012000001F36F2B50D8B4E5EF0AF0E7EF03
:1015C8000AF0F4EF0AF00001F351020DF350430F53
:1015D800D96EDA6ADECFF4F0DDCFF5F0FFEF0AF06E
:1015E8000001F351020DF3506A0FD96EDA6ADECFAB
:1015F800F4F0DDCFF5F0F451F511D8A406EF0BF0B7
:1016080008EF0BF00EEF0BF0000E2B6E000E2C6E99
:1016180072EF0BF020EE02F0F451D926F551DA22E0
:101628002CC0DEFF2DC0DDFF20EE01F0F451D926DD
:10163800F551DA222EC0DFFFF4C0D9FFF5C0DAFF7A
:10164800400EDF16F4C0D9FFF5C0DAFF000EDB86C6
:10165800F4C0D9FFF5C0DAFF000EDB8E2B50D8B4EA
:1016680038EF0BF03AEF0BF055EF0BF0F351020D9A
:10167800F350430FD96EDA6ADECF2FF0DDCF30F0AA
:10168800040E2F18316E3050326EF351020DF350A4
:10169800430FD96EDA6A31C0DEFF32C0DDFF6EEF6C
:1016A8000BF0F351020DF3506A0FD96EDA6ADECFF0
:1016B8002FF0DDCF30F0040E2F18316E3050326E1F
:1016C800F351020DF3506A0FD96EDA6A31C0DEFFAA
:1016D80032C0DDFFF4C02BF0F5C02CF01200200E54
:1016E8005C6079EF0BF07BEF0BF07DEF0BF007EF11
:1016F8000CF06DA282EF0BF084EF0BF086EF0BF08D
:1017080007EF0CF0010EA7EC12F0E806D8A48FEF53
:101718000BF091EF0BF0ABEF0BF000018851D8A460
:1017280098EF0BF09AEF0BF0AEEF0BF05250D8A4F5
:10173800A0EF0BF0A2EF0BF0AEEF0BF0E10E2B6E6B
:10174800DDEC12F0010E0001886FAEEF0BF0000E19
:101758000001886F5250D8A4B4EF0BF0B6EF0BF02D
:1017680005EF0CF0900E336E400E346ECAEC10F09C
:101778000001F86F000EF96FECEF0BF0000EF92581
:10178800D96EDA6A010EDA220A0EDF6EEBEF0BF081
:10179800000EF925D96EDA6A010EDA22F951900F96
:1017A800E16EE26AE750F76FF729DF6EEBEF0BF0B7
:1017B800F951900FD96EDA6ADF500A0AD8B4C2EF2D
:1017C8000BF0070AD8B4C2EF0BF0CCEF0BF0F92BF3
:1017D800F851F95DD8A0F3EF0BF0F5EF0BF0DCEF63
:1017E8000BF0F851D8B4FBEF0BF0FDEF0BF005EF61
:1017F8000CF0000E2B6E010E2C6EF8C02DF016ECBE
:1018080016F0FBEC06F01200096E0150D8B40FEF89
:101818000CF011EF0CF01DEF0CF00950020DF35015
:10182800430FD96EDA6ADECF0AF0DDCF0BF027EF6F
:101838000CF00950020DF3506A0FD96EDA6ADECF48
:101848000AF0DDCF0BF00A500B10D8A42EEF0CF0E5
:1018580030EF0CF036EF0CF0000E016E000E026E49
:101868009AEF0CF020EE02F00A50D9260B50DA223B
:1018780002C0DEFF03C0DDFF20EE01F00A50D926CA
:101888000B50DA2204C0DFFF0AC0D9FF0BC0DAFF11
:10189800400EDF160AC0D9FF0BC0DAFF000EDB8648
:1018A8000AC0D9FF0BC0DAFF000EDB8E0150D8B496
:1018B80060EF0CF062EF0CF07DEF0CF00950020DB8
:1018C800F350430FD96EDA6ADECF05F0DDCF06F0AC
:1018D800040E0518076E0650086E0950020DF350E5
:1018E800430FD96EDA6A07C0DEFF08C0DDFF96EF46
:1018F8000CF00950020DF3506A0FD96EDA6ADECF88
:1019080005F0DDCF06F0040E0518076E0650086EC8
:101918000950020DF3506A0FD96EDA6A07C0DEFF6C
:1019280008C0DDFF0AC001F00BC002F01200080E6B
:10193800016E425007E1080E415CD8B0A6EF0CF0EA
:10194800A8EF0CF0C0EF0CF041C001F05B50D8A438
:10195800B0EF0CF0B2EF0CF0B6EF0CF0010E5B6ECE
:10196800C0EF0CF05B04D8A4BCEF0CF0BEEF0CF099
:10197800C0EF0CF0020E5B6E0150415E000E425A41
:1019880020EE01F04350D9264450DA2201C0DFFF8F
:10199800380E0001866F040E876F40B0D6EF0CF04A
:1019A800D8EF0CF01AEF0DF0F5EF0CF03DC0F6FF94
:1019B8003EC0F7FFF86A86C0D9FF87C0DAFF070E76
:1019C800F76403D00800F55005D0F6CFE1FFF7CF54
:1019D800E2FFE750DF6E3D4A3E2A0001864B872B27
:1019E80001060150D8A4FBEF0CF0FDEF0CF0DAEF84
:1019F8000CF022EF0DF03DC0F6FF3EC0F7FFF86A8D
:101A080086C0D9FF87C0DAFF070EF76403D0080045
:101A1800F55005D0F6CFE1FFF7CFE2FFE750DF6ED4
:101A28003D4A3E2A0001864B872B01060150D8A467
:101A380020EF0DF022EF0DF0FFEF0CF0120043C085
:101A4800D9FF44C0DAFF000EDFBC010E026E040E9F
:101A58004318436E4450446E080E5C18D8A437EF00
:101A68000DF039EF0DF04BEF0DF0040132517F0B03
:101A78006E6E6E50D8B443EF0DF045EF0DF049EFA0
:101A88000DF0100E5C6E4BEF0DF0040E5C6E5A04F8
:101A9800D8A451EF0DF053EF0DF09AEF0DF020EEB2
:101AA80002F04350D9264450DA22380EDE6E040E76
:101AB800DD6E9BEC0CF0020E5B18D8A466EF0DF0FF
:101AC80068EF0DF076EF0DF043C0D9FF44C0DAFFA0
:101AD800040EDF6E43C0D9FF44C0DAFF000EDB8E70
:101AE800A4EF0DF00250D8A47CEF0DF07EEF0DF0BE
:101AF8008CEF0DF043C0D9FF44C0DAFF480EDF6E0B
:101B080043C0D9FF44C0DAFF000EDB8EA4EF0DF00E
:101B180043C0D9FF44C0DAFF080EDF6E43C0D9FFC7
:101B280044C0DAFF000EDB8EA4EF0DF038AE9FEF55
:101B38000DF0A1EF0DF0A2EF0DF0389E000E5A6ED9
:101B4800120004013039E832030B0009D8B4AFEFB2
:101B58000DF0B1EF0DF0F6EF0DF025EF0EF0408E21
:101B6800080E5C6E25EF0EF06CEC08F025EF0EF019
:101B780003EC10F025EF0EF05E0E3D6E3E6A4080DD
:101B8800010E416E408E25EF0EF0A0EC0EF025EF11
:101B98000EF064EC04F025EF0EF03451DF0F1E6EEA
:101BA8001EC03DF03E6A4080010E416E408E25EF1A
:101BB8000EF0408E3451DF0FD96EDA6A32C4DFFF7F
:101BC80025EF0EF0000E106E020E0F6E000E116E55
:101BD800000E126E000E146E000E136E22EC11F041
:101BE80025EF0EF03151000AD8B4C9EF0DF0010A03
:101BF800D8B4CDEF0DF0020AD8B4CDEF0DF0060A37
:101C0800D8B4B3EF0DF0030AD8B4B8EF0DF0010A59
:101C1800D8B4E6EF0DF00F0AD8B4C0EF0DF0010A02
:101C2800D8B4BCEF0DF0030AD8B4D1EF0DF0010A17
:101C3800D8B4DDEF0DF0070AD8B425EF0EF025EF84
:101C48000EF012006DA22BEF0EF02DEF0EF08CEFC0
:101C58000EF0010ED5EC13F09FEF0EF049044A1078
:101C6800D8A439EF0EF03BEF0EF040EF0EF0010E66
:101C7800A4EC13F09DEF0EF04B0E49184A10D8A4AF
:101C880048EF0EF04AEF0EF04FEF0EF0010ED5ECD4
:101C980013F09DEF0EF04A5009E1970E495CD8A069
:101CA80058EF0EF05AEF0EF060EF0EF0000E4A6E8D
:101CB800000E496E9DEF0EF09DEF0EF049044A109C
:101CC800D8A469EF0EF06BEF0EF070EF0EF0010E76
:101CD800A4EC13F09DEF0EF0320E49184A10D8A468
:101CE80078EF0EF07AEF0EF07FEF0EF0010ED5ECE4
:101CF80013F09DEF0EF0B70E495C030E4A58D8A0BA
:101D080088EF0EF08AEF0EF09DEF0EF05AEF0EF00E
:101D18005C50046E056A0550000AD8B496EF0EF0C0
:101D280062EF0EF00450200AD8B432EF0EF062EFE2
:101D38000EF0494A4A2A1200000E0401386F000EBC
:101D4800396FFAEF0EF0408E5904D8A4AEEF0EF0BA
:101D5800B0EF0EF00AEF0FF038830AEF0FF0408E65
:101D68000AEF0FF0408E34510F0B0009D8B4BFEFC3
:101D78000EF0C1EF0EF00AEF0FF034BFC6EF0EF011
:101D8800C8EF0EF0D5EF0EF034510F0B020DF350E3
:101D98006A0FD96EDA6ADECF01F0DDCF02F0E0EF2C
:101DA8000EF034510F0B020DF350430FD96EDA6A5F
:101DB800DECF01F0DDCF02F001C0D9FF02C0DAFFAB
:101DC800DFAEE9EF0EF0EBEF0EF00AEF0FF001C017
:101DD800D9FF02C0DAFFDFA4F4EF0EF0F6EF0EF041
:101DE8000AEF0FF0010E386F0AEF0FF030511F0B9A
:101DF800000AD8B4A7EF0EF0010AD8B4B3EF0EF07A
:101E0800030AD8B4B6EF0EF00AEF0FF040AE0FEFAA
:101E18000FF011EF0FF018EF0FF0380E3D6E040EB3
:101E28003E6E4080020E416E120000018F51D8A410
:101E380020EF0FF022EF0FF090EF0FF0010E8F6FF1
:101E48008E51D8A42AEF0FF02CEF0FF090EF0FF07F
:101E5800010E8E6F020E5A18D8A435EF0FF037EF27
:101E68000FF04CEF0FF020EE01F04350D92644500C
:101E7800DA22DF6A43C0D9FF44C0DAFF480EDF6EBA
:101E880043C0D9FF44C0DAFF000EDB8E90EF0FF09D
:101E98005A04D8A452EF0FF054EF0FF090EF0FF060
:101EA800000E566E20EE01F04F50D9265050DA221F
:101EB800080EDF6E20EE02F04F50D9265050DA227D
:101EC800300EDE6E040EDD6E4FC0D9FF50C0DAFF53
:101ED800040EDF6E4FC0D9FF50C0DAFF000EDB8E54
:101EE800010E566E20EE01F04D50D9264E50DA22E2
:101EF800080EDF6E20EE02F04D50D9264E50DA2241
:101F0800300EDE6E040EDD6E4DC0D9FF4EC0DAFF16
:101F1800800EDF6E90EF0FF01200040130511F0B9E
:101F2800E806D8B49AEF0FF09CEF0FF09EEF0FF091
:101F380002EF10F03039E832030BE806D8B4A7EF07
:101F48000FF0A9EF0FF0ABEF0FF002EF10F03451E4
:101F5800D8B4B1EF0FF0B3EF0FF0EBEF0FF034059B
:101F6800D8B4B9EF0FF0BBEF0FF0EBEF0FF002EFC3
:101F780010F0D00E3D6E3E6A000E426E080E416EA5
:101F88004080408E02EF10F0D00E3D6E3E6A408ECB
:101F980002EF10F036C439F037C43AF0D80E356E77
:101FA800000E3B6E000E3C6E388E02EF10F0D80E1D
:101FB8003D6E3E6A000E426E070E416EC10E406EC7
:101FC80002EF10F032C489F0408E02EF10F0315168
:101FD800000AD8B4BDEF0FF0010AD8B4C8EF0FF06B
:101FE800210AD8B4CEEF0FF0010AD8B4DBEF0FF016
:101FF800030AD8B4E6EF0FF002EF10F01200408E9B
:10200800710E016E0F0E026E000E046E000E036E4E
:10201800000E066E020E056EC9EC15F0000E016E7C
:10202800040E026E000E046E000E036E000E066EA5
:10203800300E056EC9EC15F06D8C000E176E17503A
:10204800810FD96EDA6ADF6A17507E0FD96EDA6AA5
:10205800DF6A172A020E176434EF10F036EF10F01B
:1020680023EF10F0DF0E016E026A000E046E000E00
:10207800036E000E066E020E056EC9EC15F06D9C1F
:10208800080E436E040E446E000E4F6E040E506E22
:102098004FC04DF050C04EF032C45EF05E50D8A430
:1020A80058EF10F05AEF10F05EEF10F0100E5C6E63
:1020B8006DEF10F0000E106E010E0F6E5E0E116EB9
:1020C800126A000E146E010E136E22EC11F0200E2F
:1020D8005C6E12002D0E556E5DC01FF0FD0E1F16B2
:1020E800D8A479EF10F07BEF10F0BDEF10F05DC0D1
:1020F8001FF0D8901F323F0E1F161F50040D000E00
:10210800F3244F6E040EF420506E4FC04DF050C0B3
:102118004EF0040E4D184D6E4E504E6E4FC0D9FF06
:1021280050C0DAFFDF30E8320F0B0D0AD8A49FEF5A
:1021380010F0A1EF10F0B9EF10F0300E016E040EA0
:10214800026E20EE02F04F50D9265050DA22DECF30
:1021580003F0DDCF04F0000E066E080E056E8CEC61
:1021680014F025EC12F0C9EF10F06DEC12F0C9EF85
:1021780010F05D50FD0B040AD8A4C5EF10F0C7EFAE
:1021880010F0C9EF10F023EC0DF01200000E536EA2
:102198004B504C10D8B4D3EF10F0D5EF10F0E0EF5F
:1021A80010F04BC0D9FF4CC0DAFFDFBEDEEF10F0F5
:1021B800E0EF10F020EF11F020EE01F04B50D9269F
:1021C8004C50DA223450DE5CD8B0EDEF10F0EFEF6F
:1021D80010F0F7EF10F020EE01F04B50D9264C50DC
:1021E800DA22DF50346E000E536E08EF11F0400E05
:1021F8005324D96EDA6A050EDA2233505324E16E7D
:10220800E26ADFCFE7FF532A3450535CD8A00FEFC0
:1022180011F011EF11F0FBEF10F0000E2B6E400ED5
:102228002C6E050E2D6E400E2E6E020EDDEC0AF0A1
:102238002BC04BF02CC04CF05350120040EF11F063
:1022480026EC0EF079EF11F026EC0EF0010EFFEC03
:1022580014F079EF11F026EC0EF0020EFFEC14F0FA
:1022680079EF11F010EC13F02CEC16F079EF11F077
:1022780091EC0FF079EF11F00FC015F010C016F0C7
:102288001650000AD8B44FEF11F07F0AD8B472EF95
:1022980011F079EF11F01550010AD8B436EF11F0AA
:1022A800030AD8B479EF11F0010AD8B43CEF11F061
:1022B800060AD8B479EF11F0770AD8B479EF11F09B
:1022C800010AD8B424EF11F0070AD8B42FEF11F09F
:1022D800010AD8B428EF11F079EF11F01550FF0A70
:1022E800D8B479EF11F079EF11F01200000E000167
:1022F8008D6F000E8C6F020E5A18D8A486EF11F05D
:1023080088EF11F0A8EF11F020EE01F04D50D9261A
:102318004E50DA22080EDF6E20EE02F04D50D9261C
:102328004E50DA22380EDE6E040EDD6E4DC0D9FF37
:102338004EC0DAFF480EDF6E4DC0D9FF4EC0DAFF3F
:10234800000EDB8ED0EF11F041500401365D425093
:102358003759D8B0B2EF11F0B4EF11F0B8EF11F06F
:1023680036C441F037C442F09BEC0CF020EE02F08A
:102378004350D9264450DA22380EDE6E040EDD6E44
:1023880043C0D9FF44C0DAFF480EDF6E43C0D9FF0F
:1023980044C0DAFF000EDB8E1200086E000E096ED4
:1023A800040E0A6E0150026E036AD8900236033694
:1023B8000850046E056AD89004360536D89004365D
:1023C800053602500424066E03500520076ED89087
:1023D80006360736D89006360736065009260750BF
:1023E8000A2209C0D9FF0AC0DAFFDF9E0150D8A42B
:1023F80000EF12F002EF12F00EEF12F00850020D8B
:10240800F3506A0FD96EDA6A09C0DEFF0AC0DDFF31
:1024180018EF12F00850020DF350430FD96EDA6A24
:1024280009C0DEFF0AC0DDFF09C0D9FF0AC0DAFF14
:10243800DF9C20EE04F00950D9260A50DA22DF8CFE
:102448001200000E5B6E000E546E000E00018D6FC0
:10245800000E8C6F000E566E000E5A6E43C0D9FFE8
:1024680044C0DAFF7F0EDF16040E4318436E445053
:10247800446E43C0D9FF44C0DAFF7F0EDF16040E56
:102488004318436E4450446E4DC0D9FF4EC0DAFF26
:102498007F0EDF16000E406E000E426E000E416E7B
:1024A800000E386E000E3A6E000E396EA5EC0DF077
:1024B800000E106E030E0F6E000E116E000E126EDF
:1024C800000E146E000E136E22EC11F0C7EC07F02C
:1024D8001200020E5A18D8A474EF12F076EF12F018
:1024E8007AEF12F010EC09F0A6EF12F0000E5A6E17
:1024F8005650D8A482EF12F084EF12F0A4EF12F035
:1025080020EE01F04D50D9264E50DA22080EDF6E2B
:1025180020EE02F04D50D9264E50DA22300EDE6EF3
:10252800040EDD6E4DC0D9FF4EC0DAFF0C0EDF6E13
:102538004DC0D9FF4EC0DAFF000EDB8EA6EF12F0B9
:10254800000E566E12002D6EC3EF12F081A8AFEF89
:1025580012F0B2EF12F0010EB3EF12F0000EDCEF42
:1025680012F081AABAEF12F0BDEF12F0010EBEEF21
:1025780012F0000EDCEF12F0000EDCEF12F02D501E
:102588002B6E2C6A2C50000AD8B4CDEF12F0C0EF95
:1025980012F02B50000AD8B4C0EF12F0010AD8B4D8
:1025A800AAEF12F0030AD8B4B5EF12F0C0EF12F098
:1025B8001200A09A5250D8B4E4EF12F0E6EF12F0ED
:1025C800E9EF12F0A08A0FEF13F0000E2D6E2BC06A
:1025D8002CF02D2A2D28D8A4F4EF12F0F6EF12F0E3
:1025E800F8EF12F004EF13F02C2A2C04D96EDA6AF3
:1025F800DF50D8A402EF13F004EF13F0EDEF12F060
:102608002BC07BF000017C6B2DC051F0000E8A6F4F
:10261800010E526EA08A1200000E0001D86F4B0EF8
:10262800D96F000EDA6F000EDB6F000EDC6F000E44
:10263800DD6F080EDE6F000E536E1A0E0B6E010E64
:10264800B4EC14F01E0E0B6E020EB4EC14F0000E77
:10265800016E400E026E050E036E400E046E020EF1
:1026680008EC0CF001C04BF002C04CF0000E000169
:10267800846F000E856F000E526E12002D6E51EFA2
:1026880013F0959072EF13F0959272EF13F0959402
:1026980072EF13F0959672EF13F02D502B6E2C6A93
:1026A8002C50000AD8B45BEF13F072EF13F02B50E4
:1026B800000AD8B472EF13F0010AD8B445EF13F04A
:1026C800030AD8B448EF13F0010AD8B44BEF13F05B
:1026D800070AD8B44EEF13F072EF13F01200036E2E
:1026E80082EF13F09590A3EF13F09592A3EF13F0F8
:1026F8009594A3EF13F09596A3EF13F00350016E92
:10270800026A0250000AD8B48CEF13F0A3EF13F05A
:102718000150000AD8B4A3EF13F0010AD8B476EF39
:1027280013F0030AD8B479EF13F0010AD8B47CEF98
:1027380013F0070AD8B47FEF13F0A3EF13F01200D9
:10274800036EB3EF13F08C80D4EF13F08C82D4EFC8
:1027580013F08C84D4EF13F08C86D4EF13F003506D
:10276800016E026A0250000AD8B4BDEF13F0D4EF2C
:1027780013F00150000AD8B4D4EF13F0010AD8B40A
:10278800A7EF13F0030AD8B4AAEF13F0010AD8B4DC
:10279800ADEF13F0070AD8B4B0EF13F0D4EF13F08D
:1027A8001200036EE4EF13F08C9005EF14F08C9296
:1027B80005EF14F08C9405EF14F08C9605EF14F0E7
:1027C8000350016E026A0250000AD8B4EEEF13F00B
:1027D80005EF14F00150000AD8B405EF14F0010A0F
:1027E800D8B4D8EF13F0030AD8B4DBEF13F0010A1A
:1027F800D8B4DEEF13F0070AD8B4E1EF13F005EF11
:1028080014F0120070A00BEF14F00DEF14F034EF79
:1028180014F04FC0D9FF50C0DAFF800EDE18D8A4DC
:1028280018EF14F01AEF14F033EF14F043C0D9FF87
:1028380044C0DAFF840EDE18D8A425EF14F027EF81
:1028480014F033EF14F04FC0D9FF50C0DAFF0C0E6C
:10285800DF6E4FC0D9FF50C0DAFF000EDB8E7090DC
:10286800689A12000600E1CF21F0E2CF22F0D9CF1A
:1028780023F0DACF24F0F3CF25F0F4CF26F0F6CF0B
:1028880027F0F7CF28F0F8CF29F0F5CF2AF0ECECB5
:1028980005F02AC0F5FF29C0F8FF28C0F7FF27C0B8
:1028A800F6FF26C0F4FF25C0F3FF24C0DAFF23C0DB
:1028B800D9FF22C0E2FF21C0E1FF5F921100960E0E
:1028C800F66E2C0EF76E000EF86E00EEE1F010EECC
:1028D80012F00900F5CFEEFFE550E150FAE101EE04
:1028E80000F0400EEE6AE806FDE100EE60F0810EB1
:1028F800EE6AE806FDE100EE35F02A0EEE6AE8061B
:10290800FDE15F905F92000EF86E00013EEF16F059
:1029180003C009F004C00AF001C007F002C008F0C3
:10292800A6EF14F009C0D9FF0AC0DAFFDF500B6E1A
:10293800094A0A2A07C0D9FF08C0DAFF0BC0DFFF1F
:10294800074A082A0506D8A00606052806E106282B
:10295800D8A4B1EF14F0B3EF14F096EF14F012000E
:102968000E6E0BA4BAEF14F0BCEF14F0C1EF14F024
:10297800000E016E0E50D1EC11F00BA2C6EF14F050
:10298800C8EF14F0CDEF14F0010E016E0E50D1EC2B
:1029980011F0700E0E240C6E0D6A0F0E0D220CC075
:1029A800D9FF0DC0DAFF0BC0DFFF1200306EE5EF74
:1029B80014F0010E42EC13F0010E47EC15F0FEEF97
:1029C80014F030502E6E2F6A2F50000AD8B4EFEF53
:1029D80014F0FEEF14F02E50000AD8B4DDEF14F016
:1029E800010AD8B4FEEF14F0030AD8B4FEEF14F0CD
:1029F800FEEF14F01200066E0AEF15F0010E73ECEC
:102A080013F0010E6AEC15F023EF15F00650046E72
:102A1800056A0550000AD8B414EF15F023EF15F035
:102A28000450000AD8B402EF15F0010AD8B423EF15
:102A380015F0030AD8B423EF15F023EF15F01200B0
:102A48005C50D8A42AEF15F02CEF15F046EF15F0DE
:102A5800000E6D6E000E696E160E6F6E9F0E6B6E19
:102A68007B0E696ED08EA28AA08AF28E3DEF15F099
:102A78006D866DA642EF15F044EF15F03CEF15F0AA
:102A8800010E5C6E12002D6E50EF15F0938869EF01
:102A980015F0938A69EF15F02D502B6E2C6A2C5087
:102AA800000AD8B45AEF15F069EF15F02B50000A58
:102AB800D8B469EF15F0010AD8B44AEF15F0030A43
:102AC800D8B44DEF15F069EF15F01200036E73EFEF
:102AD80015F093888CEF15F0938A8CEF15F003505E
:102AE800016E026A0250000AD8B47DEF15F08CEF2F
:102AF80015F00150000AD8B48CEF15F0010AD8B4CB
:102B08006DEF15F0030AD8B470EF15F08CEF15F0DF
:102B18001200000E586E000E106E740E0F6E000E2E
:102B2800116E000E126E000E146E000E136E22EC63
:102B380011F06D926994A2EF15F0689468B4A7EF4C
:102B480015F0A9EF15F0A1EF15F0000E00018B6F3D
:102B580012002BC031F02CC032F0BBEF15F031C0A1
:102B6800D9FF32C0DAFF2DC0DFFF314A322A2F06E3
:102B7800D8A030062F2806E13028D8A4C6EF15F0D3
:102B8800C8EF15F0B3EF15F0120001C007F002C04E
:102B980008F0D7EF15F007C0D9FF08C0DAFF03C067
:102BA800DFFF074A082A0506D8A00606052806E119
:102BB8000628D8A4E2EF15F0E4EF15F0CFEF15F0F2
:102BC8001200010E00017427000E75237623772367
:102BD8005850D8A4F2EF15F0F4EF15F0FEEF15F009
:102BE8008B2B8B51D8A4FBEF15F0FDEF15F0FEEF02
:102BF80015F08B691200698468986D82010E586E11
:102C0800000E00018B6F000E106E750E0F6E000E19
:102C1800116E000E126E000E146E000E136E22EC72
:102C280011F01200A09A5250D8A41DEF16F01FEF11
:102C380016F02AEF16F02BC07BF02CC07CF02DC0CC
:102C480051F0010E00018A6F010E526EA08A120027
:102C5800000E0001DC6F080EDE6F000EDD6F800EC7
:102C6800D86F250ED96F000EDA6F000EDB6F000EDD
:102C7800886F1200000EDAEC14F0AFEC09F024ECC7
:102C880015F073EC0BF045EF16F007EF00F0427506
:102C980074746F6E20707265737365642E0D0A000C
:020000040020DA
:08000000FFFFFFFFFFFFFFFF00
:020000040030CA
:0E000000210E3F1EFF0181FF0FC00FE00F40D9
:00000001FF
